:060000000A128A110C280F
:10000800FE00030EF1000A08F2000A128A11EE2817
:100018000A128A110F2883133030FD000230FE00C7
:100028002230FF00203084000A128A1113220A129B
:100038008A11B901BA01BB01FA0183010A128A11B6
:10004800E82983120313B101F41F2B282C28332825
:10005800F309F409F30A0319F40AB101B10AF61F06
:10006800362837284028F509F609F50A0319F60A4B
:100078000130F7007708B106B201B30173087404C0
:100088000319472848287F28B001B00A56280130AC
:100098000310F30DF40DFF3E031D4C280130F7004B
:1000A8007708B007F41F59285A284B280130031045
:1000B800B20DB30DFF3E031D5B2874087602031DC5
:1000C800672873087502031C6A286B28722873084E
:1000D800F5027408031CF603F6023214013003100B
:1000E800F40CF30CFF3E031D73280130B002031D0E
:1000F8007E287F285A2831080319832884288928CC
:10010800B209B309B20A0319B30A3308F400320872
:10011800F300080083120313B7006430F3000030C3
:10012800F4003708B400B5013408F5003508F600C6
:100138000A128A1125200A128A11730883120313DE
:10014800B6003608F9006430F3000030F4003708D0
:10015800B400B5013408F5003508F6000A128A1112
:100168004C210A128A11730883120313B600360849
:10017800F8000A30F3000030F4007808B400B50144
:100188003408F5003508F6000A128A1125200A12EB
:100198008A11730883120313B6003608BD000A30AB
:1001A800F3000030F4007808B400B5013408F50015
:1001B8003508F6000A128A114C210A128A117308AE
:1001C80083120313B6003608F8007808B400340820
:1001D800BC0008000B1CF128F2280729831203131E
:1001E8000618F728F828FE280130F000700885075F
:1001F800050885008618012902290629013085028B
:10020800050885000B10831203130C1C0C290D29FB
:100218001829070887000130F000700887070B309D
:100228008F00DC308E000C100B1D1B291C29452962
:1002380088017A08031D21292229292939088700DC
:1002480001308800FA01FA0A42297A03031D2D2990
:100258002E2937293A088700023088000230F0003A
:100268007008FA00422902307A06031D3C293D290C
:1002780042293B08870004308800FA0106308100D3
:100288000B1172088A00710E8300FE0E7E0E0900A3
:1002980083120313B101F61F522953295A29F5096C
:1002A800F609F50A0319F60AB101B10AF41F5D2926
:1002B8005E296329F309F409F30A0319F40A730898
:1002C80074040319682969299829B001B00A7729A3
:1002D80001300310F30DF40DFF3E031D6D290130AD
:1002E800F7007708B007F41F7A297B296C2974086E
:1002F8007602031D812973087502031C8429852948
:100308008B297308F5027408031CF603F602013002
:100318000310F40CF30CFF3E031D8C290130B002CE
:10032800031D972998297B29310803199C299D29A0
:10033800A229F509F609F50A0319F60A7608F40060
:100348007508F300080083160317880189018316CE
:100358000313850183120313850183160313870191
:10036800831203138701831603138801831203136F
:10037800880103308316031386000F088F3930383D
:100388008F000F148113151495148B170B178B15E9
:100398000C148B16161496140B1081128111F83058
:1003A800810506308312031381000B111013100806
:1003B800CF39103890009011901010140B308F0026
:1003C800DC308E000C1008000A128A11A7210A12CC
:1003D8008A1107300A128A118E200A128A11831292
:1003E80003133C08203E840083130008B800380833
:1003F800B9003D08203E84000008B8003808BA005B
:100408007908203E84000008B8003808BB00ED29B0
:100418000A128A110C287E088A007F0882000A12B4
:100428008A110F220A128A118000840A04087D06A4
:1004380003190034FF0A0319FE0A132A3F3406344D
:100448005B344F3466346D347D3407347F346F3415
:0C04580077347C3439345E3479347134EC
:08400000FF3FFF3FFF3FFF3FC0
:04400E00D420FF3F7C
:00000001FF
